{
  "contractName": "BapCoin",
  "abi": [
    {
      "inputs": [
        {
          "internalType": "uint256",
          "name": "",
          "type": "uint256"
        }
      ],
      "name": "transactions",
      "outputs": [
        {
          "internalType": "address",
          "name": "sender",
          "type": "address"
        },
        {
          "internalType": "address",
          "name": "receiver",
          "type": "address"
        },
        {
          "internalType": "uint256",
          "name": "amount",
          "type": "uint256"
        }
      ],
      "stateMutability": "view",
      "type": "function",
      "constant": true
    },
    {
      "inputs": [
        {
          "internalType": "address",
          "name": "sender",
          "type": "address"
        },
        {
          "internalType": "address",
          "name": "receiver",
          "type": "address"
        },
        {
          "internalType": "uint256",
          "name": "amount",
          "type": "uint256"
        }
      ],
      "name": "add_transaction",
      "outputs": [],
      "stateMutability": "nonpayable",
      "type": "function"
    },
    {
      "inputs": [],
      "name": "get_transactions",
      "outputs": [
        {
          "components": [
            {
              "internalType": "address",
              "name": "sender",
              "type": "address"
            },
            {
              "internalType": "address",
              "name": "receiver",
              "type": "address"
            },
            {
              "internalType": "uint256",
              "name": "amount",
              "type": "uint256"
            }
          ],
          "internalType": "struct BapCoin.transaction[]",
          "name": "",
          "type": "tuple[]"
        }
      ],
      "stateMutability": "view",
      "type": "function",
      "constant": true
    }
  ],
  "bytecode": "0x608060405234801561001057600080fd5b50610620806100206000396000f3fe608060405234801561001057600080fd5b50600436106100415760003560e01c806334cdc412146100465780639ace38c214610062578063fe81340814610094575b600080fd5b610060600480360381019061005b9190610382565b6100b2565b005b61007c600480360381019061007791906103d1565b6101c9565b60405161008b939291906104ee565b60405180910390f35b61009c610243565b6040516100a99190610525565b60405180910390f35b600060405180606001604052808573ffffffffffffffffffffffffffffffffffffffff1681526020018473ffffffffffffffffffffffffffffffffffffffff168152602001838152509050600081908060018154018082558091505060019003906000526020600020906003020160009091909190915060008201518160000160006101000a81548173ffffffffffffffffffffffffffffffffffffffff021916908373ffffffffffffffffffffffffffffffffffffffff16021790555060208201518160010160006101000a81548173ffffffffffffffffffffffffffffffffffffffff021916908373ffffffffffffffffffffffffffffffffffffffff16021790555060408201518160020155505050505050565b600081815481106101d957600080fd5b90600052602060002090600302016000915090508060000160009054906101000a900473ffffffffffffffffffffffffffffffffffffffff16908060010160009054906101000a900473ffffffffffffffffffffffffffffffffffffffff16908060020154905083565b60606000805480602002602001604051908101604052809291908181526020016000905b8282101561034f57838290600052602060002090600302016040518060600160405290816000820160009054906101000a900473ffffffffffffffffffffffffffffffffffffffff1673ffffffffffffffffffffffffffffffffffffffff1673ffffffffffffffffffffffffffffffffffffffff1681526020016001820160009054906101000a900473ffffffffffffffffffffffffffffffffffffffff1673ffffffffffffffffffffffffffffffffffffffff1673ffffffffffffffffffffffffffffffffffffffff16815260200160028201548152505081526020019060010190610267565b50505050905090565b600081359050610367816105bc565b92915050565b60008135905061037c816105d3565b92915050565b60008060006060848603121561039757600080fd5b60006103a586828701610358565b93505060206103b686828701610358565b92505060406103c78682870161036d565b9150509250925092565b6000602082840312156103e357600080fd5b60006103f18482850161036d565b91505092915050565b6000610406838361048e565b60608301905092915050565b61041b81610580565b82525050565b61042a81610580565b82525050565b600061043b82610557565b610445818561056f565b935061045083610547565b8060005b8381101561048157815161046888826103fa565b975061047383610562565b925050600181019050610454565b5085935050505092915050565b6060820160008201516104a46000850182610412565b5060208201516104b76020850182610412565b5060408201516104ca60408501826104d0565b50505050565b6104d9816105b2565b82525050565b6104e8816105b2565b82525050565b60006060820190506105036000830186610421565b6105106020830185610421565b61051d60408301846104df565b949350505050565b6000602082019050818103600083015261053f8184610430565b905092915050565b6000819050602082019050919050565b600081519050919050565b6000602082019050919050565b600082825260208201905092915050565b600061058b82610592565b9050919050565b600073ffffffffffffffffffffffffffffffffffffffff82169050919050565b6000819050919050565b6105c581610580565b81146105d057600080fd5b50565b6105dc816105b2565b81146105e757600080fd5b5056fea2646970667358221220e6e54d778a7c9c0a3cbe0061264aab1e0df837be1842ff761f5f1f5d35d8a11064736f6c63430008040033",
  "immutableReferences": {},
  "source": "// SPDX-License-Identifier: AML\n// BapCoin\n\n// Define Version of the Solidity compiler\npragma solidity ^0.8.4;\n\ncontract BapCoin {\n  struct transaction {\n    address sender;\n    address receiver;\n    uint amount;\n  }\n  transaction[] public transactions;\n\n  function add_transaction(address sender, address receiver, uint amount) external {\n    transaction memory t = transaction(sender, receiver, amount);\n    transactions.push(t);\n  }\n\n  function get_transactions() external view returns (transaction[] memory) {\n    return transactions;\n  }\n}\n",
  "sourcePath": "/Users/bsaliba/git/projects/crypto/bapcoin_contract/contracts/BapCoin.sol",
  "compiler": {
    "name": "solc",
    "version": "0.8.4+commit.c7e474f2.Emscripten.clang"
  },
  "schemaVersion": "3.4.1",
  "updatedAt": "2021-06-02T00:22:35.150Z",
  "networkType": "ethereum",
  "devdoc": {
    "kind": "dev",
    "methods": {},
    "version": 1
  },
  "userdoc": {
    "kind": "user",
    "methods": {},
    "version": 1
  }
}