{
  "contractName": "Contract",
  "abi": [
    {
      "inputs": [],
      "name": "count",
      "outputs": [
        {
          "internalType": "int256",
          "name": "",
          "type": "int256"
        }
      ],
      "stateMutability": "view",
      "type": "function"
    },
    {
      "inputs": [
        {
          "internalType": "uint256",
          "name": "",
          "type": "uint256"
        }
      ],
      "name": "transactions",
      "outputs": [
        {
          "internalType": "address",
          "name": "sender",
          "type": "address"
        },
        {
          "internalType": "address",
          "name": "receiver",
          "type": "address"
        },
        {
          "internalType": "uint256",
          "name": "amount",
          "type": "uint256"
        }
      ],
      "stateMutability": "view",
      "type": "function"
    },
    {
      "inputs": [
        {
          "internalType": "address",
          "name": "sender",
          "type": "address"
        },
        {
          "internalType": "address",
          "name": "receiver",
          "type": "address"
        },
        {
          "internalType": "uint256",
          "name": "amount",
          "type": "uint256"
        }
      ],
      "name": "add_transaction",
      "outputs": [],
      "stateMutability": "nonpayable",
      "type": "function"
    },
    {
      "inputs": [],
      "name": "get_transactions",
      "outputs": [
        {
          "components": [
            {
              "internalType": "address",
              "name": "sender",
              "type": "address"
            },
            {
              "internalType": "address",
              "name": "receiver",
              "type": "address"
            },
            {
              "internalType": "uint256",
              "name": "amount",
              "type": "uint256"
            }
          ],
          "internalType": "struct Contract.transaction[]",
          "name": "",
          "type": "tuple[]"
        }
      ],
      "stateMutability": "view",
      "type": "function"
    },
    {
      "inputs": [],
      "name": "incr",
      "outputs": [],
      "stateMutability": "nonpayable",
      "type": "function"
    },
    {
      "inputs": [],
      "name": "decr",
      "outputs": [],
      "stateMutability": "nonpayable",
      "type": "function"
    },
    {
      "inputs": [],
      "name": "display",
      "outputs": [
        {
          "internalType": "int256",
          "name": "",
          "type": "int256"
        }
      ],
      "stateMutability": "view",
      "type": "function"
    }
  ],
  "bytecode": "0x6080604052600060015534801561001557600080fd5b506107e5806100256000396000f3fe608060405234801561001057600080fd5b506004361061007d5760003560e01c806334cdc4121161005b57806334cdc412146100c85780639ace38c2146100e4578063d9f2ac8a14610116578063fe813408146101205761007d565b806306661abd146100825780630c1b7c1e146100a0578063119fbbd4146100be575b600080fd5b61008a61013e565b6040516100979190610626565b60405180910390f35b6100a8610144565b6040516100b59190610626565b60405180910390f35b6100c661014e565b005b6100e260048036038101906100dd9190610452565b610168565b005b6100fe60048036038101906100f991906104a1565b61027f565b60405161010d939291906105cd565b60405180910390f35b61011e6102f9565b005b610128610313565b6040516101359190610604565b60405180910390f35b60015481565b6000600154905090565b6001600081548092919061016190610709565b9190505550565b600060405180606001604052808573ffffffffffffffffffffffffffffffffffffffff1681526020018473ffffffffffffffffffffffffffffffffffffffff168152602001838152509050600081908060018154018082558091505060019003906000526020600020906003020160009091909190915060008201518160000160006101000a81548173ffffffffffffffffffffffffffffffffffffffff021916908373ffffffffffffffffffffffffffffffffffffffff16021790555060208201518160010160006101000a81548173ffffffffffffffffffffffffffffffffffffffff021916908373ffffffffffffffffffffffffffffffffffffffff16021790555060408201518160020155505050505050565b6000818154811061028f57600080fd5b90600052602060002090600302016000915090508060000160009054906101000a900473ffffffffffffffffffffffffffffffffffffffff16908060010160009054906101000a900473ffffffffffffffffffffffffffffffffffffffff16908060020154905083565b6001600081548092919061030c906106c0565b9190505550565b60606000805480602002602001604051908101604052809291908181526020016000905b8282101561041f57838290600052602060002090600302016040518060600160405290816000820160009054906101000a900473ffffffffffffffffffffffffffffffffffffffff1673ffffffffffffffffffffffffffffffffffffffff1673ffffffffffffffffffffffffffffffffffffffff1681526020016001820160009054906101000a900473ffffffffffffffffffffffffffffffffffffffff1673ffffffffffffffffffffffffffffffffffffffff1673ffffffffffffffffffffffffffffffffffffffff16815260200160028201548152505081526020019060010190610337565b50505050905090565b60008135905061043781610781565b92915050565b60008135905061044c81610798565b92915050565b60008060006060848603121561046757600080fd5b600061047586828701610428565b935050602061048686828701610428565b92505060406104978682870161043d565b9150509250925092565b6000602082840312156104b357600080fd5b60006104c18482850161043d565b91505092915050565b60006104d6838361056d565b60608301905092915050565b6104eb8161067a565b82525050565b6104fa8161067a565b82525050565b600061050b82610651565b6105158185610669565b935061052083610641565b8060005b8381101561055157815161053888826104ca565b97506105438361065c565b925050600181019050610524565b5085935050505092915050565b6105678161068c565b82525050565b60608201600082015161058360008501826104e2565b50602082015161059660208501826104e2565b5060408201516105a960408501826105af565b50505050565b6105b8816106b6565b82525050565b6105c7816106b6565b82525050565b60006060820190506105e260008301866104f1565b6105ef60208301856104f1565b6105fc60408301846105be565b949350505050565b6000602082019050818103600083015261061e8184610500565b905092915050565b600060208201905061063b600083018461055e565b92915050565b6000819050602082019050919050565b600081519050919050565b6000602082019050919050565b600082825260208201905092915050565b600061068582610696565b9050919050565b6000819050919050565b600073ffffffffffffffffffffffffffffffffffffffff82169050919050565b6000819050919050565b60006106cb8261068c565b91507f80000000000000000000000000000000000000000000000000000000000000008214156106fe576106fd610752565b5b600182039050919050565b60006107148261068c565b91507f7fffffffffffffffffffffffffffffffffffffffffffffffffffffffffffffff82141561074757610746610752565b5b600182019050919050565b7f4e487b7100000000000000000000000000000000000000000000000000000000600052601160045260246000fd5b61078a8161067a565b811461079557600080fd5b50565b6107a1816106b6565b81146107ac57600080fd5b5056fea2646970667358221220b714ebc73d20d2290f133c5051e93f62181f5db4cea3a9004813a3549f352f0164736f6c63430008040033",
  "immutableReferences": {},
  "source": "// SPDX-License-Identifier: AML\n// Basic Contract\n\n// Define Version of the Solidity compiler\npragma solidity ^0.8.4;\n\ncontract Contract {\n  struct transaction {\n    address sender;\n    address receiver;\n    uint amount;\n  }\n  transaction[] public transactions;\n\n  function add_transaction(address sender, address receiver, uint amount) external {\n    transaction memory t = transaction(sender, receiver, amount);\n    transactions.push(t);\n  }\n\n  function get_transactions() external view returns (transaction[] memory) {\n    return transactions;\n  }\n\n  //Test Code\n  int public count = 0;\n  function incr() public{\n    count++;\n  }\n  function decr() public{\n    count--;\n  }\n  function display() public view returns (int){\n    return count;\n  }\n}\n",
  "sourcePath": "/Users/bsaliba/git/projects/hackday-project-contract/contracts/Contract.sol",
  "compiler": {
    "name": "solc",
    "version": "0.8.4+commit.c7e474f2.Emscripten.clang"
  },
  "schemaVersion": "3.4.1",
  "updatedAt": "2021-06-11T14:22:52.287Z",
  "devdoc": {
    "kind": "dev",
    "methods": {},
    "version": 1
  },
  "userdoc": {
    "kind": "user",
    "methods": {},
    "version": 1
  }
}