{
  "contractName": "MessagesContract",
  "abi": [
    {
      "inputs": [
        {
          "internalType": "uint256",
          "name": "",
          "type": "uint256"
        }
      ],
      "name": "messages",
      "outputs": [
        {
          "internalType": "string",
          "name": "name",
          "type": "string"
        },
        {
          "internalType": "string",
          "name": "text",
          "type": "string"
        }
      ],
      "stateMutability": "view",
      "type": "function",
      "constant": true
    },
    {
      "inputs": [
        {
          "internalType": "string",
          "name": "name",
          "type": "string"
        },
        {
          "internalType": "string",
          "name": "text",
          "type": "string"
        }
      ],
      "name": "add_message",
      "outputs": [],
      "stateMutability": "nonpayable",
      "type": "function"
    },
    {
      "inputs": [],
      "name": "get_messages",
      "outputs": [
        {
          "components": [
            {
              "internalType": "string",
              "name": "name",
              "type": "string"
            },
            {
              "internalType": "string",
              "name": "text",
              "type": "string"
            }
          ],
          "internalType": "struct MessagesContract.message[]",
          "name": "",
          "type": "tuple[]"
        }
      ],
      "stateMutability": "view",
      "type": "function",
      "constant": true
    }
  ],
  "bytecode": "0x608060405234801561001057600080fd5b50610972806100206000396000f3fe608060405234801561001057600080fd5b50600436106100415760003560e01c80630d80fefd1461004657806391078d0414610077578063ae6de59314610095575b600080fd5b610060600480360381019061005b919061058a565b6100b1565b60405161006e929190610714565b60405180910390f35b61007f6101f5565b60405161008c91906106f2565b60405180910390f35b6100af60048036038101906100aa919061051e565b610378565b005b600081815481106100c157600080fd5b90600052602060002090600202016000915090508060000180546100e490610853565b80601f016020809104026020016040519081016040528092919081815260200182805461011090610853565b801561015d5780601f106101325761010080835404028352916020019161015d565b820191906000526020600020905b81548152906001019060200180831161014057829003601f168201915b50505050509080600101805461017290610853565b80601f016020809104026020016040519081016040528092919081815260200182805461019e90610853565b80156101eb5780601f106101c0576101008083540402835291602001916101eb565b820191906000526020600020905b8154815290600101906020018083116101ce57829003601f168201915b5050505050905082565b60606000805480602002602001604051908101604052809291908181526020016000905b8282101561036f578382906000526020600020906002020160405180604001604052908160008201805461024c90610853565b80601f016020809104026020016040519081016040528092919081815260200182805461027890610853565b80156102c55780601f1061029a576101008083540402835291602001916102c5565b820191906000526020600020905b8154815290600101906020018083116102a857829003601f168201915b505050505081526020016001820180546102de90610853565b80601f016020809104026020016040519081016040528092919081815260200182805461030a90610853565b80156103575780601f1061032c57610100808354040283529160200191610357565b820191906000526020600020905b81548152906001019060200180831161033a57829003601f168201915b50505050508152505081526020019060010190610219565b50505050905090565b60006040518060400160405280848152602001838152509050600081908060018154018082558091505060019003906000526020600020906002020160009091909190915060008201518160000190805190602001906103d99291906103fe565b5060208201518160010190805190602001906103f69291906103fe565b505050505050565b82805461040a90610853565b90600052602060002090601f01602090048101928261042c5760008555610473565b82601f1061044557805160ff1916838001178555610473565b82800160010185558215610473579182015b82811115610472578251825591602001919060010190610457565b5b5090506104809190610484565b5090565b5b8082111561049d576000816000905550600101610485565b5090565b60006104b46104af84610770565b61074b565b9050828152602081018484840111156104cc57600080fd5b6104d7848285610811565b509392505050565b600082601f8301126104f057600080fd5b81356105008482602086016104a1565b91505092915050565b60008135905061051881610925565b92915050565b6000806040838503121561053157600080fd5b600083013567ffffffffffffffff81111561054b57600080fd5b610557858286016104df565b925050602083013567ffffffffffffffff81111561057457600080fd5b610580858286016104df565b9150509250929050565b60006020828403121561059c57600080fd5b60006105aa84828501610509565b91505092915050565b60006105bf83836106ae565b905092915050565b60006105d2826107b1565b6105dc81856107d4565b9350836020820285016105ee856107a1565b8060005b8581101561062a578484038952815161060b85826105b3565b9450610616836107c7565b925060208a019950506001810190506105f2565b50829750879550505050505092915050565b6000610647826107bc565b61065181856107e5565b9350610661818560208601610820565b61066a81610914565b840191505092915050565b6000610680826107bc565b61068a81856107f6565b935061069a818560208601610820565b6106a381610914565b840191505092915050565b600060408301600083015184820360008601526106cb828261063c565b915050602083015184820360208601526106e5828261063c565b9150508091505092915050565b6000602082019050818103600083015261070c81846105c7565b905092915050565b6000604082019050818103600083015261072e8185610675565b905081810360208301526107428184610675565b90509392505050565b6000610755610766565b90506107618282610885565b919050565b6000604051905090565b600067ffffffffffffffff82111561078b5761078a6108e5565b5b61079482610914565b9050602081019050919050565b6000819050602082019050919050565b600081519050919050565b600081519050919050565b6000602082019050919050565b600082825260208201905092915050565b600082825260208201905092915050565b600082825260208201905092915050565b6000819050919050565b82818337600083830152505050565b60005b8381101561083e578082015181840152602081019050610823565b8381111561084d576000848401525b50505050565b6000600282049050600182168061086b57607f821691505b6020821081141561087f5761087e6108b6565b5b50919050565b61088e82610914565b810181811067ffffffffffffffff821117156108ad576108ac6108e5565b5b80604052505050565b7f4e487b7100000000000000000000000000000000000000000000000000000000600052602260045260246000fd5b7f4e487b7100000000000000000000000000000000000000000000000000000000600052604160045260246000fd5b6000601f19601f8301169050919050565b61092e81610807565b811461093957600080fd5b5056fea2646970667358221220daa013317c5372a8c7639f96c5ebfd697c9324a99b213077e922ca9e971d329664736f6c63430008040033",
  "immutableReferences": {},
  "source": "// SPDX-License-Identifier: AML\n// Messaging Contract\n\n// Define Version of the Solidity compiler\npragma solidity ^0.8.4;\n\ncontract MessagesContract {\n  struct message {\n    string name;\n    string text;\n  }\n  message[] public messages;\n\n  function add_message(string memory name, string memory text) external {\n    message memory m = message(name, text);\n    messages.push(m);\n  }\n\n  function get_messages() external view returns (message[] memory) {\n    return messages;\n  }\n}\n",
  "sourcePath": "/Users/bsaliba/git/projects/hackday-project-contract/contracts/MessagesContract.sol",
  "compiler": {
    "name": "solc",
    "version": "0.8.4+commit.c7e474f2.Emscripten.clang"
  },
  "schemaVersion": "3.4.1",
  "updatedAt": "2021-06-11T14:25:09.210Z",
  "networkType": "ethereum",
  "devdoc": {
    "kind": "dev",
    "methods": {},
    "version": 1
  },
  "userdoc": {
    "kind": "user",
    "methods": {},
    "version": 1
  }
}